{
  "_format": "hh-sol-artifact-1",
  "contractName": "EntesNFT",
  "sourceName": "contracts/EntesNFT.sol",
  "abi": [
    {
      "inputs": [],
      "stateMutability": "nonpayable",
      "type": "constructor"
    },
    {
      "anonymous": false,
      "inputs": [
        {
          "indexed": true,
          "internalType": "address",
          "name": "owner",
          "type": "address"
        },
        {
          "indexed": true,
          "internalType": "address",
          "name": "approved",
          "type": "address"
        },
        {
          "indexed": true,
          "internalType": "uint256",
          "name": "tokenId",
          "type": "uint256"
        }
      ],
      "name": "Approval",
      "type": "event"
    },
    {
      "anonymous": false,
      "inputs": [
        {
          "indexed": true,
          "internalType": "address",
          "name": "owner",
          "type": "address"
        },
        {
          "indexed": true,
          "internalType": "address",
          "name": "operator",
          "type": "address"
        },
        {
          "indexed": false,
          "internalType": "bool",
          "name": "approved",
          "type": "bool"
        }
      ],
      "name": "ApprovalForAll",
      "type": "event"
    },
    {
      "anonymous": false,
      "inputs": [
        {
          "indexed": false,
          "internalType": "address",
          "name": "sender",
          "type": "address"
        },
        {
          "indexed": false,
          "internalType": "uint256",
          "name": "tokenId",
          "type": "uint256"
        }
      ],
      "name": "NewEntesNFTMinted",
      "type": "event"
    },
    {
      "anonymous": false,
      "inputs": [
        {
          "indexed": true,
          "internalType": "address",
          "name": "previousOwner",
          "type": "address"
        },
        {
          "indexed": true,
          "internalType": "address",
          "name": "newOwner",
          "type": "address"
        }
      ],
      "name": "OwnershipTransferred",
      "type": "event"
    },
    {
      "anonymous": false,
      "inputs": [
        {
          "indexed": true,
          "internalType": "address",
          "name": "from",
          "type": "address"
        },
        {
          "indexed": true,
          "internalType": "address",
          "name": "to",
          "type": "address"
        },
        {
          "indexed": true,
          "internalType": "uint256",
          "name": "tokenId",
          "type": "uint256"
        }
      ],
      "name": "Transfer",
      "type": "event"
    },
    {
      "inputs": [
        {
          "internalType": "address",
          "name": "to",
          "type": "address"
        },
        {
          "internalType": "uint256",
          "name": "tokenId",
          "type": "uint256"
        }
      ],
      "name": "approve",
      "outputs": [],
      "stateMutability": "nonpayable",
      "type": "function"
    },
    {
      "inputs": [
        {
          "internalType": "address",
          "name": "owner",
          "type": "address"
        }
      ],
      "name": "balanceOf",
      "outputs": [
        {
          "internalType": "uint256",
          "name": "",
          "type": "uint256"
        }
      ],
      "stateMutability": "view",
      "type": "function"
    },
    {
      "inputs": [
        {
          "internalType": "uint256",
          "name": "tokenId",
          "type": "uint256"
        }
      ],
      "name": "getApproved",
      "outputs": [
        {
          "internalType": "address",
          "name": "",
          "type": "address"
        }
      ],
      "stateMutability": "view",
      "type": "function"
    },
    {
      "inputs": [],
      "name": "getTotalNFTsMintedSoFar",
      "outputs": [
        {
          "internalType": "uint256",
          "name": "",
          "type": "uint256"
        }
      ],
      "stateMutability": "view",
      "type": "function"
    },
    {
      "inputs": [
        {
          "internalType": "address",
          "name": "owner",
          "type": "address"
        },
        {
          "internalType": "address",
          "name": "operator",
          "type": "address"
        }
      ],
      "name": "isApprovedForAll",
      "outputs": [
        {
          "internalType": "bool",
          "name": "",
          "type": "bool"
        }
      ],
      "stateMutability": "view",
      "type": "function"
    },
    {
      "inputs": [],
      "name": "mintEntesNFT",
      "outputs": [],
      "stateMutability": "nonpayable",
      "type": "function"
    },
    {
      "inputs": [],
      "name": "name",
      "outputs": [
        {
          "internalType": "string",
          "name": "",
          "type": "string"
        }
      ],
      "stateMutability": "view",
      "type": "function"
    },
    {
      "inputs": [],
      "name": "owner",
      "outputs": [
        {
          "internalType": "address",
          "name": "",
          "type": "address"
        }
      ],
      "stateMutability": "view",
      "type": "function"
    },
    {
      "inputs": [
        {
          "internalType": "uint256",
          "name": "tokenId",
          "type": "uint256"
        }
      ],
      "name": "ownerOf",
      "outputs": [
        {
          "internalType": "address",
          "name": "",
          "type": "address"
        }
      ],
      "stateMutability": "view",
      "type": "function"
    },
    {
      "inputs": [],
      "name": "renounceOwnership",
      "outputs": [],
      "stateMutability": "nonpayable",
      "type": "function"
    },
    {
      "inputs": [
        {
          "internalType": "address",
          "name": "from",
          "type": "address"
        },
        {
          "internalType": "address",
          "name": "to",
          "type": "address"
        },
        {
          "internalType": "uint256",
          "name": "tokenId",
          "type": "uint256"
        }
      ],
      "name": "safeTransferFrom",
      "outputs": [],
      "stateMutability": "nonpayable",
      "type": "function"
    },
    {
      "inputs": [
        {
          "internalType": "address",
          "name": "from",
          "type": "address"
        },
        {
          "internalType": "address",
          "name": "to",
          "type": "address"
        },
        {
          "internalType": "uint256",
          "name": "tokenId",
          "type": "uint256"
        },
        {
          "internalType": "bytes",
          "name": "_data",
          "type": "bytes"
        }
      ],
      "name": "safeTransferFrom",
      "outputs": [],
      "stateMutability": "nonpayable",
      "type": "function"
    },
    {
      "inputs": [
        {
          "internalType": "address",
          "name": "operator",
          "type": "address"
        },
        {
          "internalType": "bool",
          "name": "approved",
          "type": "bool"
        }
      ],
      "name": "setApprovalForAll",
      "outputs": [],
      "stateMutability": "nonpayable",
      "type": "function"
    },
    {
      "inputs": [
        {
          "internalType": "bool",
          "name": "isRevealed",
          "type": "bool"
        }
      ],
      "name": "setRevealed",
      "outputs": [],
      "stateMutability": "nonpayable",
      "type": "function"
    },
    {
      "inputs": [
        {
          "internalType": "bytes4",
          "name": "interfaceId",
          "type": "bytes4"
        }
      ],
      "name": "supportsInterface",
      "outputs": [
        {
          "internalType": "bool",
          "name": "",
          "type": "bool"
        }
      ],
      "stateMutability": "view",
      "type": "function"
    },
    {
      "inputs": [],
      "name": "symbol",
      "outputs": [
        {
          "internalType": "string",
          "name": "",
          "type": "string"
        }
      ],
      "stateMutability": "view",
      "type": "function"
    },
    {
      "inputs": [
        {
          "internalType": "uint256",
          "name": "tokenId",
          "type": "uint256"
        }
      ],
      "name": "tokenURI",
      "outputs": [
        {
          "internalType": "string",
          "name": "",
          "type": "string"
        }
      ],
      "stateMutability": "view",
      "type": "function"
    },
    {
      "inputs": [
        {
          "internalType": "address",
          "name": "from",
          "type": "address"
        },
        {
          "internalType": "address",
          "name": "to",
          "type": "address"
        },
        {
          "internalType": "uint256",
          "name": "tokenId",
          "type": "uint256"
        }
      ],
      "name": "transferFrom",
      "outputs": [],
      "stateMutability": "nonpayable",
      "type": "function"
    },
    {
      "inputs": [
        {
          "internalType": "address",
          "name": "newOwner",
          "type": "address"
        }
      ],
      "name": "transferOwnership",
      "outputs": [],
      "stateMutability": "nonpayable",
      "type": "function"
    }
  ],
  "bytecode": "0x60806040526000600960006101000a81548160ff0219169083151502179055506040518060800160405280605c81526020016200310c605c9139600a90805190602001906200005092919062000273565b506040518060800160405280605a815260200162003168605a9139600b90805190602001906200008292919062000273565b506040518060400160405280600581526020017f2e6a736f6e000000000000000000000000000000000000000000000000000000815250600c9080519060200190620000d092919062000273565b50348015620000de57600080fd5b506040518060400160405280601981526020017f456e746573204e465420436f6c6c656374696f6e2054657374000000000000008152506040518060400160405280600581526020017f454e54455300000000000000000000000000000000000000000000000000000081525081600090805190602001906200016392919062000273565b5080600190805190602001906200017c92919062000273565b5050506200019f62000193620001a560201b60201c565b620001ad60201b60201c565b62000388565b600033905090565b6000600760009054906101000a900473ffffffffffffffffffffffffffffffffffffffff16905081600760006101000a81548173ffffffffffffffffffffffffffffffffffffffff021916908373ffffffffffffffffffffffffffffffffffffffff1602179055508173ffffffffffffffffffffffffffffffffffffffff168173ffffffffffffffffffffffffffffffffffffffff167f8be0079c531659141344cd1fd0a4f28419497f9722a3daafe3b4186f6b6457e060405160405180910390a35050565b828054620002819062000323565b90600052602060002090601f016020900481019282620002a55760008555620002f1565b82601f10620002c057805160ff1916838001178555620002f1565b82800160010185558215620002f1579182015b82811115620002f0578251825591602001919060010190620002d3565b5b50905062000300919062000304565b5090565b5b808211156200031f57600081600090555060010162000305565b5090565b600060028204905060018216806200033c57607f821691505b6020821081141562000353576200035262000359565b5b50919050565b7f4e487b7100000000000000000000000000000000000000000000000000000000600052602260045260246000fd5b612d7480620003986000396000f3fe608060405234801561001057600080fd5b50600436106101215760003560e01c806370a08231116100ad578063b88d4fde11610071578063b88d4fde146102e2578063c87b56dd146102fe578063e0a808531461032e578063e985e9c51461034a578063f2fde38b1461037a57610121565b806370a0823114610250578063715018a6146102805780638da5cb5b1461028a57806395d89b41146102a8578063a22cb465146102c657610121565b8063095ea7b3116100f4578063095ea7b3146101c257806323b872dd146101de57806342842e0e146101fa57806343f48d0f146102165780636352211e1461022057610121565b806301ffc9a714610126578063060475901461015657806306fdde0314610174578063081812fc14610192575b600080fd5b610140600480360381019061013b9190611e63565b610396565b60405161014d91906126e7565b60405180910390f35b61015e610478565b60405161016b9190612924565b60405180910390f35b61017c610489565b6040516101899190612702565b60405180910390f35b6101ac60048036038101906101a79190611eb5565b61051b565b6040516101b99190612657565b60405180910390f35b6101dc60048036038101906101d79190611dfe565b6105a0565b005b6101f860048036038101906101f39190611cf8565b6106b8565b005b610214600480360381019061020f9190611cf8565b610718565b005b61021e610738565b005b61023a60048036038101906102359190611eb5565b610796565b6040516102479190612657565b60405180910390f35b61026a60048036038101906102659190611c93565b610848565b6040516102779190612924565b60405180910390f35b610288610900565b005b610292610988565b60405161029f9190612657565b60405180910390f35b6102b06109b2565b6040516102bd9190612702565b60405180910390f35b6102e060048036038101906102db9190611dc2565b610a44565b005b6102fc60048036038101906102f79190611d47565b610a5a565b005b61031860048036038101906103139190611eb5565b610abc565b6040516103259190612702565b60405180910390f35b61034860048036038101906103439190611e3a565b610be4565b005b610364600480360381019061035f9190611cbc565b610c7d565b60405161037191906126e7565b60405180910390f35b610394600480360381019061038f9190611c93565b610d11565b005b60007f80ac58cd000000000000000000000000000000000000000000000000000000007bffffffffffffffffffffffffffffffffffffffffffffffffffffffff1916827bffffffffffffffffffffffffffffffffffffffffffffffffffffffff1916148061046157507f5b5e139f000000000000000000000000000000000000000000000000000000007bffffffffffffffffffffffffffffffffffffffffffffffffffffffff1916827bffffffffffffffffffffffffffffffffffffffffffffffffffffffff1916145b80610471575061047082610e09565b5b9050919050565b60006104846008610e73565b905090565b60606000805461049890612b69565b80601f01602080910402602001604051908101604052809291908181526020018280546104c490612b69565b80156105115780601f106104e657610100808354040283529160200191610511565b820191906000526020600020905b8154815290600101906020018083116104f457829003601f168201915b5050505050905090565b600061052682610e81565b610565576040517f08c379a000000000000000000000000000000000000000000000000000000000815260040161055c90612884565b60405180910390fd5b6004600083815260200190815260200160002060009054906101000a900473ffffffffffffffffffffffffffffffffffffffff169050919050565b60006105ab82610796565b90508073ffffffffffffffffffffffffffffffffffffffff168373ffffffffffffffffffffffffffffffffffffffff16141561061c576040517f08c379a0000000000000000000000000000000000000000000000000000000008152600401610613906128e4565b60405180910390fd5b8073ffffffffffffffffffffffffffffffffffffffff1661063b610eed565b73ffffffffffffffffffffffffffffffffffffffff16148061066a575061066981610664610eed565b610c7d565b5b6106a9576040517f08c379a00000000000000000000000000000000000000000000000000000000081526004016106a090612804565b60405180910390fd5b6106b38383610ef5565b505050565b6106c96106c3610eed565b82610fae565b610708576040517f08c379a00000000000000000000000000000000000000000000000000000000081526004016106ff90612904565b60405180910390fd5b61071383838361108c565b505050565b61073383838360405180602001604052806000815250610a5a565b505050565b61074260086112e8565b600061074e6008610e73565b905061075a33826112fe565b7f7e72783cb5df04c0793ec8ad9653b85a70d08b7c07deaaea30326e995cc14a5b338260405161078b9291906126be565b60405180910390a150565b6000806002600084815260200190815260200160002060009054906101000a900473ffffffffffffffffffffffffffffffffffffffff169050600073ffffffffffffffffffffffffffffffffffffffff168173ffffffffffffffffffffffffffffffffffffffff16141561083f576040517f08c379a000000000000000000000000000000000000000000000000000000000815260040161083690612844565b60405180910390fd5b80915050919050565b60008073ffffffffffffffffffffffffffffffffffffffff168273ffffffffffffffffffffffffffffffffffffffff1614156108b9576040517f08c379a00000000000000000000000000000000000000000000000000000000081526004016108b090612824565b60405180910390fd5b600360008373ffffffffffffffffffffffffffffffffffffffff1673ffffffffffffffffffffffffffffffffffffffff168152602001908152602001600020549050919050565b610908610eed565b73ffffffffffffffffffffffffffffffffffffffff16610926610988565b73ffffffffffffffffffffffffffffffffffffffff161461097c576040517f08c379a0000000000000000000000000000000000000000000000000000000008152600401610973906128a4565b60405180910390fd5b610986600061131c565b565b6000600760009054906101000a900473ffffffffffffffffffffffffffffffffffffffff16905090565b6060600180546109c190612b69565b80601f01602080910402602001604051908101604052809291908181526020018280546109ed90612b69565b8015610a3a5780601f10610a0f57610100808354040283529160200191610a3a565b820191906000526020600020905b815481529060010190602001808311610a1d57829003601f168201915b5050505050905090565b610a56610a4f610eed565b83836113e2565b5050565b610a6b610a65610eed565b83610fae565b610aaa576040517f08c379a0000000000000000000000000000000000000000000000000000000008152600401610aa190612904565b60405180910390fd5b610ab68484848461154f565b50505050565b6060610ac782610e81565b610b06576040517f08c379a0000000000000000000000000000000000000000000000000000000008152600401610afd906127e4565b60405180910390fd5b60001515600960009054906101000a900460ff1615151415610b83576000600a8054610b3190612b69565b905011610b4d5760405180602001604052806000815250610b7c565b600a610b58836115ab565b600c604051602001610b6c93929190612626565b6040516020818303038152906040525b9050610bdf565b6000610b8d611758565b90506000815111610bad5760405180602001604052806000815250610bdb565b80610bb7846115ab565b600c604051602001610bcb939291906125f5565b6040516020818303038152906040525b9150505b919050565b610bec610eed565b73ffffffffffffffffffffffffffffffffffffffff16610c0a610988565b73ffffffffffffffffffffffffffffffffffffffff1614610c60576040517f08c379a0000000000000000000000000000000000000000000000000000000008152600401610c57906128a4565b60405180910390fd5b80600960006101000a81548160ff02191690831515021790555050565b6000600560008473ffffffffffffffffffffffffffffffffffffffff1673ffffffffffffffffffffffffffffffffffffffff16815260200190815260200160002060008373ffffffffffffffffffffffffffffffffffffffff1673ffffffffffffffffffffffffffffffffffffffff16815260200190815260200160002060009054906101000a900460ff16905092915050565b610d19610eed565b73ffffffffffffffffffffffffffffffffffffffff16610d37610988565b73ffffffffffffffffffffffffffffffffffffffff1614610d8d576040517f08c379a0000000000000000000000000000000000000000000000000000000008152600401610d84906128a4565b60405180910390fd5b600073ffffffffffffffffffffffffffffffffffffffff168173ffffffffffffffffffffffffffffffffffffffff161415610dfd576040517f08c379a0000000000000000000000000000000000000000000000000000000008152600401610df490612744565b60405180910390fd5b610e068161131c565b50565b60007f01ffc9a7000000000000000000000000000000000000000000000000000000007bffffffffffffffffffffffffffffffffffffffffffffffffffffffff1916827bffffffffffffffffffffffffffffffffffffffffffffffffffffffff1916149050919050565b600081600001549050919050565b60008073ffffffffffffffffffffffffffffffffffffffff166002600084815260200190815260200160002060009054906101000a900473ffffffffffffffffffffffffffffffffffffffff1673ffffffffffffffffffffffffffffffffffffffff1614159050919050565b600033905090565b816004600083815260200190815260200160002060006101000a81548173ffffffffffffffffffffffffffffffffffffffff021916908373ffffffffffffffffffffffffffffffffffffffff160217905550808273ffffffffffffffffffffffffffffffffffffffff16610f6883610796565b73ffffffffffffffffffffffffffffffffffffffff167f8c5be1e5ebec7d5bd14f71427d1e84f3dd0314c0f7b2291e5b200ac8c7c3b92560405160405180910390a45050565b6000610fb982610e81565b610ff8576040517f08c379a0000000000000000000000000000000000000000000000000000000008152600401610fef906127c4565b60405180910390fd5b600061100383610796565b90508073ffffffffffffffffffffffffffffffffffffffff168473ffffffffffffffffffffffffffffffffffffffff16148061107257508373ffffffffffffffffffffffffffffffffffffffff1661105a8461051b565b73ffffffffffffffffffffffffffffffffffffffff16145b8061108357506110828185610c7d565b5b91505092915050565b8273ffffffffffffffffffffffffffffffffffffffff166110ac82610796565b73ffffffffffffffffffffffffffffffffffffffff1614611102576040517f08c379a00000000000000000000000000000000000000000000000000000000081526004016110f9906128c4565b60405180910390fd5b600073ffffffffffffffffffffffffffffffffffffffff168273ffffffffffffffffffffffffffffffffffffffff161415611172576040517f08c379a000000000000000000000000000000000000000000000000000000000815260040161116990612784565b60405180910390fd5b61117d8383836117ea565b611188600082610ef5565b6001600360008573ffffffffffffffffffffffffffffffffffffffff1673ffffffffffffffffffffffffffffffffffffffff16815260200190815260200160002060008282546111d89190612a7f565b925050819055506001600360008473ffffffffffffffffffffffffffffffffffffffff1673ffffffffffffffffffffffffffffffffffffffff168152602001908152602001600020600082825461122f91906129f8565b92505081905550816002600083815260200190815260200160002060006101000a81548173ffffffffffffffffffffffffffffffffffffffff021916908373ffffffffffffffffffffffffffffffffffffffff160217905550808273ffffffffffffffffffffffffffffffffffffffff168473ffffffffffffffffffffffffffffffffffffffff167fddf252ad1be2c89b69c2b068fc378daa952ba7f163c4a11628f55a4df523b3ef60405160405180910390a4505050565b6001816000016000828254019250508190555050565b6113188282604051806020016040528060008152506117ef565b5050565b6000600760009054906101000a900473ffffffffffffffffffffffffffffffffffffffff16905081600760006101000a81548173ffffffffffffffffffffffffffffffffffffffff021916908373ffffffffffffffffffffffffffffffffffffffff1602179055508173ffffffffffffffffffffffffffffffffffffffff168173ffffffffffffffffffffffffffffffffffffffff167f8be0079c531659141344cd1fd0a4f28419497f9722a3daafe3b4186f6b6457e060405160405180910390a35050565b8173ffffffffffffffffffffffffffffffffffffffff168373ffffffffffffffffffffffffffffffffffffffff161415611451576040517f08c379a0000000000000000000000000000000000000000000000000000000008152600401611448906127a4565b60405180910390fd5b80600560008573ffffffffffffffffffffffffffffffffffffffff1673ffffffffffffffffffffffffffffffffffffffff16815260200190815260200160002060008473ffffffffffffffffffffffffffffffffffffffff1673ffffffffffffffffffffffffffffffffffffffff16815260200190815260200160002060006101000a81548160ff0219169083151502179055508173ffffffffffffffffffffffffffffffffffffffff168373ffffffffffffffffffffffffffffffffffffffff167f17307eab39ab6107e8899845ad3d59bd9653f200f220920489ca2b5937696c318360405161154291906126e7565b60405180910390a3505050565b61155a84848461108c565b6115668484848461184a565b6115a5576040517f08c379a000000000000000000000000000000000000000000000000000000000815260040161159c90612724565b60405180910390fd5b50505050565b606060008214156115f3576040518060400160405280600181526020017f30000000000000000000000000000000000000000000000000000000000000008152509050611753565b600082905060005b6000821461162557808061160e90612b9b565b915050600a8261161e9190612a4e565b91506115fb565b60008167ffffffffffffffff811115611667577f4e487b7100000000000000000000000000000000000000000000000000000000600052604160045260246000fd5b6040519080825280601f01601f1916602001820160405280156116995781602001600182028036833780820191505090505b5090505b6000851461174c576001826116b29190612a7f565b9150600a856116c19190612be4565b60306116cd91906129f8565b60f81b818381518110611709577f4e487b7100000000000000000000000000000000000000000000000000000000600052603260045260246000fd5b60200101907effffffffffffffffffffffffffffffffffffffffffffffffffffffffffffff1916908160001a905350600a856117459190612a4e565b945061169d565b8093505050505b919050565b6060600b805461176790612b69565b80601f016020809104026020016040519081016040528092919081815260200182805461179390612b69565b80156117e05780601f106117b5576101008083540402835291602001916117e0565b820191906000526020600020905b8154815290600101906020018083116117c357829003601f168201915b5050505050905090565b505050565b6117f983836119e1565b611806600084848461184a565b611845576040517f08c379a000000000000000000000000000000000000000000000000000000000815260040161183c90612724565b60405180910390fd5b505050565b600061186b8473ffffffffffffffffffffffffffffffffffffffff16611baf565b156119d4578373ffffffffffffffffffffffffffffffffffffffff1663150b7a02611894610eed565b8786866040518563ffffffff1660e01b81526004016118b69493929190612672565b602060405180830381600087803b1580156118d057600080fd5b505af192505050801561190157506040513d601f19601f820116820180604052508101906118fe9190611e8c565b60015b611984573d8060008114611931576040519150601f19603f3d011682016040523d82523d6000602084013e611936565b606091505b5060008151141561197c576040517f08c379a000000000000000000000000000000000000000000000000000000000815260040161197390612724565b60405180910390fd5b805181602001fd5b63150b7a0260e01b7bffffffffffffffffffffffffffffffffffffffffffffffffffffffff1916817bffffffffffffffffffffffffffffffffffffffffffffffffffffffff1916149150506119d9565b600190505b949350505050565b600073ffffffffffffffffffffffffffffffffffffffff168273ffffffffffffffffffffffffffffffffffffffff161415611a51576040517f08c379a0000000000000000000000000000000000000000000000000000000008152600401611a4890612864565b60405180910390fd5b611a5a81610e81565b15611a9a576040517f08c379a0000000000000000000000000000000000000000000000000000000008152600401611a9190612764565b60405180910390fd5b611aa6600083836117ea565b6001600360008473ffffffffffffffffffffffffffffffffffffffff1673ffffffffffffffffffffffffffffffffffffffff1681526020019081526020016000206000828254611af691906129f8565b92505081905550816002600083815260200190815260200160002060006101000a81548173ffffffffffffffffffffffffffffffffffffffff021916908373ffffffffffffffffffffffffffffffffffffffff160217905550808273ffffffffffffffffffffffffffffffffffffffff16600073ffffffffffffffffffffffffffffffffffffffff167fddf252ad1be2c89b69c2b068fc378daa952ba7f163c4a11628f55a4df523b3ef60405160405180910390a45050565b600080823b905060008111915050919050565b6000611bd5611bd084612970565b61293f565b905082815260208101848484011115611bed57600080fd5b611bf8848285612b27565b509392505050565b600081359050611c0f81612ce2565b92915050565b600081359050611c2481612cf9565b92915050565b600081359050611c3981612d10565b92915050565b600081519050611c4e81612d10565b92915050565b600082601f830112611c6557600080fd5b8135611c75848260208601611bc2565b91505092915050565b600081359050611c8d81612d27565b92915050565b600060208284031215611ca557600080fd5b6000611cb384828501611c00565b91505092915050565b60008060408385031215611ccf57600080fd5b6000611cdd85828601611c00565b9250506020611cee85828601611c00565b9150509250929050565b600080600060608486031215611d0d57600080fd5b6000611d1b86828701611c00565b9350506020611d2c86828701611c00565b9250506040611d3d86828701611c7e565b9150509250925092565b60008060008060808587031215611d5d57600080fd5b6000611d6b87828801611c00565b9450506020611d7c87828801611c00565b9350506040611d8d87828801611c7e565b925050606085013567ffffffffffffffff811115611daa57600080fd5b611db687828801611c54565b91505092959194509250565b60008060408385031215611dd557600080fd5b6000611de385828601611c00565b9250506020611df485828601611c15565b9150509250929050565b60008060408385031215611e1157600080fd5b6000611e1f85828601611c00565b9250506020611e3085828601611c7e565b9150509250929050565b600060208284031215611e4c57600080fd5b6000611e5a84828501611c15565b91505092915050565b600060208284031215611e7557600080fd5b6000611e8384828501611c2a565b91505092915050565b600060208284031215611e9e57600080fd5b6000611eac84828501611c3f565b91505092915050565b600060208284031215611ec757600080fd5b6000611ed584828501611c7e565b91505092915050565b611ee781612ab3565b82525050565b611ef681612ac5565b82525050565b6000611f07826129b5565b611f1181856129cb565b9350611f21818560208601612b36565b611f2a81612cd1565b840191505092915050565b6000611f40826129c0565b611f4a81856129dc565b9350611f5a818560208601612b36565b611f6381612cd1565b840191505092915050565b6000611f79826129c0565b611f8381856129ed565b9350611f93818560208601612b36565b80840191505092915050565b60008154611fac81612b69565b611fb681866129ed565b94506001821660008114611fd15760018114611fe257612015565b60ff19831686528186019350612015565b611feb856129a0565b60005b8381101561200d57815481890152600182019150602081019050611fee565b838801955050505b50505092915050565b600061202b6032836129dc565b91507f4552433732313a207472616e7366657220746f206e6f6e20455243373231526560008301527f63656976657220696d706c656d656e74657200000000000000000000000000006020830152604082019050919050565b60006120916026836129dc565b91507f4f776e61626c653a206e6577206f776e657220697320746865207a65726f206160008301527f64647265737300000000000000000000000000000000000000000000000000006020830152604082019050919050565b60006120f7601c836129dc565b91507f4552433732313a20746f6b656e20616c7265616479206d696e746564000000006000830152602082019050919050565b60006121376024836129dc565b91507f4552433732313a207472616e7366657220746f20746865207a65726f2061646460008301527f72657373000000000000000000000000000000000000000000000000000000006020830152604082019050919050565b600061219d6019836129dc565b91507f4552433732313a20617070726f766520746f2063616c6c6572000000000000006000830152602082019050919050565b60006121dd602c836129dc565b91507f4552433732313a206f70657261746f7220717565727920666f72206e6f6e657860008301527f697374656e7420746f6b656e00000000000000000000000000000000000000006020830152604082019050919050565b6000612243602f836129dc565b91507f4552433732314d657461646174613a2055524920717565727920666f72206e6f60008301527f6e6578697374696e6720746f6b656e00000000000000000000000000000000006020830152604082019050919050565b60006122a96038836129dc565b91507f4552433732313a20617070726f76652063616c6c6572206973206e6f74206f7760008301527f6e6572206e6f7220617070726f76656420666f7220616c6c00000000000000006020830152604082019050919050565b600061230f602a836129dc565b91507f4552433732313a2062616c616e636520717565727920666f7220746865207a6560008301527f726f2061646472657373000000000000000000000000000000000000000000006020830152604082019050919050565b60006123756029836129dc565b91507f4552433732313a206f776e657220717565727920666f72206e6f6e657869737460008301527f656e7420746f6b656e00000000000000000000000000000000000000000000006020830152604082019050919050565b60006123db6020836129dc565b91507f4552433732313a206d696e7420746f20746865207a65726f20616464726573736000830152602082019050919050565b600061241b602c836129dc565b91507f4552433732313a20617070726f76656420717565727920666f72206e6f6e657860008301527f697374656e7420746f6b656e00000000000000000000000000000000000000006020830152604082019050919050565b60006124816020836129dc565b91507f4f776e61626c653a2063616c6c6572206973206e6f7420746865206f776e65726000830152602082019050919050565b60006124c16029836129dc565b91507f4552433732313a207472616e73666572206f6620746f6b656e2074686174206960008301527f73206e6f74206f776e00000000000000000000000000000000000000000000006020830152604082019050919050565b60006125276021836129dc565b91507f4552433732313a20617070726f76616c20746f2063757272656e74206f776e6560008301527f72000000000000000000000000000000000000000000000000000000000000006020830152604082019050919050565b600061258d6031836129dc565b91507f4552433732313a207472616e736665722063616c6c6572206973206e6f74206f60008301527f776e6572206e6f7220617070726f7665640000000000000000000000000000006020830152604082019050919050565b6125ef81612b1d565b82525050565b60006126018286611f6e565b915061260d8285611f6e565b91506126198284611f9f565b9150819050949350505050565b60006126328286611f9f565b915061263e8285611f6e565b915061264a8284611f9f565b9150819050949350505050565b600060208201905061266c6000830184611ede565b92915050565b60006080820190506126876000830187611ede565b6126946020830186611ede565b6126a160408301856125e6565b81810360608301526126b38184611efc565b905095945050505050565b60006040820190506126d36000830185611ede565b6126e060208301846125e6565b9392505050565b60006020820190506126fc6000830184611eed565b92915050565b6000602082019050818103600083015261271c8184611f35565b905092915050565b6000602082019050818103600083015261273d8161201e565b9050919050565b6000602082019050818103600083015261275d81612084565b9050919050565b6000602082019050818103600083015261277d816120ea565b9050919050565b6000602082019050818103600083015261279d8161212a565b9050919050565b600060208201905081810360008301526127bd81612190565b9050919050565b600060208201905081810360008301526127dd816121d0565b9050919050565b600060208201905081810360008301526127fd81612236565b9050919050565b6000602082019050818103600083015261281d8161229c565b9050919050565b6000602082019050818103600083015261283d81612302565b9050919050565b6000602082019050818103600083015261285d81612368565b9050919050565b6000602082019050818103600083015261287d816123ce565b9050919050565b6000602082019050818103600083015261289d8161240e565b9050919050565b600060208201905081810360008301526128bd81612474565b9050919050565b600060208201905081810360008301526128dd816124b4565b9050919050565b600060208201905081810360008301526128fd8161251a565b9050919050565b6000602082019050818103600083015261291d81612580565b9050919050565b600060208201905061293960008301846125e6565b92915050565b6000604051905081810181811067ffffffffffffffff8211171561296657612965612ca2565b5b8060405250919050565b600067ffffffffffffffff82111561298b5761298a612ca2565b5b601f19601f8301169050602081019050919050565b60008190508160005260206000209050919050565b600081519050919050565b600081519050919050565b600082825260208201905092915050565b600082825260208201905092915050565b600081905092915050565b6000612a0382612b1d565b9150612a0e83612b1d565b9250827fffffffffffffffffffffffffffffffffffffffffffffffffffffffffffffffff03821115612a4357612a42612c15565b5b828201905092915050565b6000612a5982612b1d565b9150612a6483612b1d565b925082612a7457612a73612c44565b5b828204905092915050565b6000612a8a82612b1d565b9150612a9583612b1d565b925082821015612aa857612aa7612c15565b5b828203905092915050565b6000612abe82612afd565b9050919050565b60008115159050919050565b60007fffffffff0000000000000000000000000000000000000000000000000000000082169050919050565b600073ffffffffffffffffffffffffffffffffffffffff82169050919050565b6000819050919050565b82818337600083830152505050565b60005b83811015612b54578082015181840152602081019050612b39565b83811115612b63576000848401525b50505050565b60006002820490506001821680612b8157607f821691505b60208210811415612b9557612b94612c73565b5b50919050565b6000612ba682612b1d565b91507fffffffffffffffffffffffffffffffffffffffffffffffffffffffffffffffff821415612bd957612bd8612c15565b5b600182019050919050565b6000612bef82612b1d565b9150612bfa83612b1d565b925082612c0a57612c09612c44565b5b828206905092915050565b7f4e487b7100000000000000000000000000000000000000000000000000000000600052601160045260246000fd5b7f4e487b7100000000000000000000000000000000000000000000000000000000600052601260045260246000fd5b7f4e487b7100000000000000000000000000000000000000000000000000000000600052602260045260246000fd5b7f4e487b7100000000000000000000000000000000000000000000000000000000600052604160045260246000fd5b6000601f19601f8301169050919050565b612ceb81612ab3565b8114612cf657600080fd5b50565b612d0281612ac5565b8114612d0d57600080fd5b50565b612d1981612ad1565b8114612d2457600080fd5b50565b612d3081612b1d565b8114612d3b57600080fd5b5056fea2646970667358221220ee84bb4e843f632157faf52db01fcd65a375c5f503e4d0ab1e14322a9675416d64736f6c6343000800003368747470733a2f2f676174657761792e70696e6174612e636c6f75642f697066732f516d507665417353696754426b476248766e4b4d4154796b5231576e4d6f796b7a6f504141544d4c5575415653722f756e72657665616c65642f68747470733a2f2f676174657761792e70696e6174612e636c6f75642f697066732f516d507665417353696754426b476248766e4b4d4154796b5231576e4d6f796b7a6f504141544d4c5575415653722f72657665616c65642f",
  "linkReferences": {},
  "deployedLinkReferences": {}
}